:020000040800F2
:10000000600600206D0100087501000877010008F6
:10001000790100087B0100087D0100080000000054
:100020000000000000000000000000007F01000848
:10003000810100080000000083010008850100081C
:100040008701000887010008870100088701000870
:100050008701000887010008870100088701000860
:100060008701000887010008870100088701000850
:100070008701000887010008870100088701000840
:100080008701000887010008870100088701000830
:100090008701000887010008870100088701000820
:1000A0008701000887010008870100088701000810
:1000B0008701000887010008870100088701000800
:1000C00087010008870100088701000887010008F0
:1000D00087010008870100088701000887010008E0
:1000E00087010008870100088701000800F002F876
:1000F00000F02CF80AA090E8000C82448344AAF196
:100100000107DA4501D100F021F8AFF2090EBAE893
:100110000F0013F0010F18BFFB1A43F0010318473B
:10012000DC050000EC05000000230024002500266B
:10013000103A28BF78C1FBD8520728BF30C148BF4A
:100140000B6070471FB51FBD10B510BD00F031F832
:100150001146FFF7F7FF00F0C5FA00F04FF803B4BF
:10016000FFF7F2FF03BC00F057F800000948804792
:1001700009480047FEE7FEE7FEE7FEE7FEE7FEE789
:10018000FEE7FEE7FEE7FEE704480549054A064BA1
:100190007047000009050008ED000008600000201D
:1001A0006006002060020020600200207047704757
:1001B0007047754600F02CF8AE4605006946534678
:1001C00020F00700854618B020B5FFF7DDFFBDE839
:1001D00020404FF000064FF000074FF000084FF0AE
:1001E000000B21F00701AC46ACE8C009ACE8C0093F
:1001F000ACE8C009ACE8C0098D46704710B50446AC
:10020000AFF300802046BDE81040FFF7A8BF000014
:10021000004870470000002001491820ABBEFEE7EF
:100220002600020070472DE9F04102460025002615
:10023000002000230024002791F803C00CF00F05D4
:1002400091F803C00CF0100CBCF1000F03D091F832
:1002500002C04CEA050591F800C0BCF1000F31D096
:10026000146800202BE04FF0010C0CFA00F3B1F8F9
:1002700000C00CEA03069E4220D183004FF00F0C11
:100280000CFA03F7BC4305FA03FC4CEA040491F8AA
:1002900003C0BCF1280F06D14FF0010C0CFA00FC92
:1002A000C2F814C00AE091F803C0BCF1480F05D1B0
:1002B0004FF0010C0CFA00FCC2F810C0401C0828DA
:1002C000D1D31460B1F800C0BCF1FF0F34DD546825
:1002D00000202EE000F1080C4FF0010808FA0CF3A2
:1002E000B1F800C00CEA03069E4221D183004FF012
:1002F0000F0C0CFA03F7BC4305FA03FC4CEA0404A8
:1003000091F803C0BCF1280F05D100F1080C08FAE0
:100310000CF8C2F8148091F803C0BCF1480F07D163
:1003200000F1080C4FF0010808FA0CF8C2F8108030
:10033000401C0828CED35460BDE8F08108B50121E7
:10034000042000F015F84FF48070ADF8000018207C
:100350008DF8030048208DF8030003208DF802007B
:1003600069460248FFF75FFF08BD00000008014032
:1003700029B1064A92690243044B9A6104E0034A98
:1003800092698243014B9A6170470000001002405D
:1003900010B500F001F810BD0CB5002001900090E0
:1003A0003348006840F480303149086000BF30486D
:1003B000006800F4003000900198401C0190009803
:1003C00018B90198B0F5A06FF1D12948006800F480
:1003D000003010B10120009001E000200090009852
:1003E000012843D12348006840F0100021490860EB
:1003F0000846006820F0030008600846006840F0E6
:10040000020008601A484068194948600846406878
:1004100048600846406840F480604860084640688C
:1004200020F47C1048600846406840F4E8104860BA
:100430000846006840F08070086000BF0C48006803
:1004400000F000700028F9D00948406820F003004F
:10045000074948600846406840F00200486000BF15
:100460000348406800F00C000828F9D10CBD0000DA
:1004700000100240002002402148006840F4803013
:100480001F49086000BF1E48006800F400300028C3
:10049000F9D01B48406840F480601949486008461C
:1004A000406820F4701048601648006840F0100062
:1004B000144908600846006840F0020008601048CF
:1004C000406840F4C8100E4948600846006840F093
:1004D0008070086000BF0A48006800F000700028C3
:1004E000F9D00748406840F002000549486000BF65
:1004F0000348406800F00C000828F9D1704700005C
:10050000001002400020024010B51348006840F07F
:1005100001001149086008464068104908400E492A
:100520004860084600680E4908400B4908600846C4
:10053000006820F4802008600846406820F4FE002F
:1005400048604FF41F008860FFF722FF4FF0006003
:100550000449086010BD0000001002400000FFF8D0
:10056000FFFFF6FE08ED00E04348806940F40060BC
:10057000414988610120414908804020091D0880C7
:100580000C20091D08802020091D08803B482838C0
:10059000008820F4407039492839088008460088CE
:1005A00008800846008820F070000880084600880F
:1005B000088032481038008820F070002F49103928
:1005C00008800846008820F003000880084600885C
:1005D00040F06000088029482838008840F0080072
:1005E00026492839088025482038008820F07000E6
:1005F0002249203908800846008840F01000088011
:100600000846008820F0070008800846008840F06F
:100610000600088019481038008840F00800174983
:1006200010390880081F008840F00100091F088069
:1006300012481C30008840F4004010491C310880EA
:100640000E480838008820F002000C49083908805C
:100650000846008840F0020008800846008840F004
:100660000100088005482838008840F0010003494F
:10067000283908807047000000100240282C0140F3
:100680001648C06940F001001449C86140F21F30AB
:1006900089048885012008858007008820F440703F
:1006A00008800846008808800846008820F070000E
:1006B00008800846008808800948008820F07000FB
:1006C000074908800807808840F0200009078880D3
:1006D0000846008840F00100088070470010024082
:1006E000042C014010B5FFF7C7FEFFF727FEFFF708
:1006F0003BFFFFF7C5FF002010BD00000C070008FE
:0C07000000000020600600002801000836
:04000005080000ED02
:00000001FF
